:020000040800F2
:10000000B00D002099010008973100082B2B000843
:1000100095310008E10F0008213C000800000000B5
:10002000000000000000000000000000E3320008B3
:10003000B9110008000000009931000835330008AC
:10004000B3010008B3010008B3010008B3010008C0
:10005000B3010008B3010008B3010008B3010008B0
:10006000B3010008B3010008B3010008B3010008A0
:10007000B3010008B3010008B3010008B301000890
:10008000B3010008B3010008B3010008B301000880
:10009000B3010008B3010008B3010008B301000870
:1000A000B3010008B3010008B3010008B301000860
:1000B00091330008B3010008B3010008B301000840
:1000C000B3010008B3010008B3010008B301000840
:1000D000B3010008D1370008B3010008E537000874
:1000E000B3010008B3010008B3010008B301000820
:1000F000B3010008B3010008B3010008B301000810
:10010000B3010008B3010008B3010008B3010008FF
:10011000B3010008B3010008B3010008B3010008EF
:1001200009110008B3010008B3010008B301000879
:10013000B30100080000000000000000B301000847
:10014000B3010008B3010008B3010008B3010008BF
:10015000B3010008B3010008B3010008B3010008AF
:10016000B3010008B3010008B3010008B30100089F
:10017000B3010008B3010008000000000000000007
:10018000B3010008DFF80CD000F03AFC004800474B
:10019000814E0008B00D0020064880470648004701
:1001A000FEE7FEE7FEE7FEE7FEE7FEE7FEE7FEE727
:1001B000FEE7FEE78F330008850100082DE9F05FB8
:1001C0000546002092469B468846064681464024C6
:1001D0001BE0284641464746224600F0EBFA5346CC
:1001E0005A46C01A914110D311461846224600F0D3
:1001F000D2FA2D1A67EB01084F4622460120002152
:1002000000F0C9FA17EB00094E41201EA4F10104C9
:10021000DFDC484631462A464346BDE8F09F0000F1
:100220000649074A0868504343F2390210440860FF
:1002300040087047014908607047000060050020D1
:100240006D4EC641D2B201E000F8012B491EFBD22F
:1002500070470022F6E710B513460A4604461946D1
:10026000FFF7F0FF204610BD421C10F8011B0029CB
:10027000FBD1801A7047F0B480EA0102D40F42002B
:10028000B2EB410F02D20246084611464A0042D064
:10029000C30DDDB2C1F3C752AD1A202D35DAC1F35B
:1002A000160141F4000204B15242C5F1200602FADF
:1002B00006F12A411044B3EBD05F23D0C4B1012D25
:1002C000A0EBC35009DCF0BC4FF0004202EAC3527D
:1002D000DBB200F5000000F098BA400000F1807039
:1002E00000EBC350A0F1807040EAD170490009E0F2
:1002F000490841EAC071A0EBC35000F50000400876
:1003000000EBC350F0BC00F077BA6142012202EB6F
:100310004101001BF6E7F0BC704781F00041AAE7FD
:1003200080F00040A7E780EA010210B502F0004328
:10033000400022D04A001FD0010E01EB1261C0F331
:100340005600C2F3560240F4000042F40002A0FB43
:10035000022000047F39140400D0401C50EA1240EF
:1003600001D44000491EC2B20C0604EBD010401C60
:100370004008802A02D003E0002010BD20F00100D8
:10038000002900DA0020184310BD30B480EA0102D1
:1003900002F0004530F0004221F0004013D090B14F
:1003A000C30DD40DC2F31601C0F31600E41A41F4D4
:1003B000000140F400027D34914201D3641C00E04E
:1003C0004900002C02DA30BC002070474FF40000D6
:1003D0000023914201D3891A034340084FEA4101A7
:1003E000F7D151B1914202D14FF0004105E002D264
:1003F0004FF0010101E06FF0010103EBC45028440C
:1004000030BC00F0F9B92DE9FE4F804681EA0300C7
:10041000C00F0C46009021F0004123F00045B8EBDE
:100420000200A94105D24046214690461C460B4693
:10043000024623F00040104347D0270DC7F30A00BF
:10044000C3F30A510290401A019040286BDAC3F3BB
:10045000130040F4801B0098924620B10023D2EB99
:10046000030A63EB0B0B01985946C0F1400250465A
:1004700000F091F906460D4650465946019A00F0A3
:10048000A9F910EB08006141002487EA115284EABF
:10049000E7731A4340D0009A62B3019A012A4FEAE7
:1004A000075215DC001B61EB02014FF0004202EA2B
:1004B0000752CDE90042001C41F5801132462B461F
:1004C00000F0E0F903B0BDE8F08F40462146F9E7BF
:1004D000001B61EB0201001C41F5801300185B4119
:1004E0002018A2F5001747EB030140EAD570B619B2
:1004F0006D4111E06D084FEA360645EAC0754FEAD6
:100500000752001B61EB0201001C41F580114908F4
:100510004FEA30000019514132462B4603B0BDE886
:10052000F04F00F0A0B90098012240000023D0EB6A
:10053000020263EBE073009821464FEAE074B8EBE7
:10054000000061EB0401E9E783F000435BE781F021
:10055000004158E72DE9FE4F81EA030404F000440E
:1005600021F0004100944FF0000B23F0004350EACB
:1005700001045ED052EA03045BD0C3F30A54C1F312
:100580000A552C44A4F2F3340194A0FB0254C1F3A5
:10059000130141F48011C3F3130343F4801301FBEF
:1005A000024400FB034E840A970A44EA815447EA56
:1005B0008357A4FB076802958D0A05FB07854FEA60
:1005C000932C04FB0C542705029D4FEA065847EA7A
:1005D0001637B5EB08056EEB070C870E920E47EA4F
:1005E000811742EA8312A7FB0201B6EB0B0164EB11
:1005F00000042B0D43EA0C335E1844EB1C50DA4622
:100600005146E7FB0201C5F313044FEA0B3343EAFB
:1006100014534FEA0432019C43EA0603A4F10C048C
:100620000294009CCDE900B400F02CF903B0BDE8C1
:10063000F08F00200146F9E70EB5C10F80EAE070A7
:100640000844CA07002140F233438DE80E000A46F1
:100650000B4600F017F903B000BD0EB540F2334170
:1006600002910021CDE900110A460B4600F00AF97B
:1006700003B000BD20F00040C10DC0F3160040F4EF
:1006800000007F2901DA00207047962903DCC1F1C0
:100690009601C840704796398840704770B5C1F3DD
:1006A0000A5201F000450024C1F3130140F2FF3368
:1006B00041F480119A4201DA002070BD40F23343C8
:1006C0009A42A2F2334203DC524200F073F800E097
:1006D00090402C43F1D0404270BDC1F30A5210B596
:1006E000C1F3130140F2FF3341F480119A4201DA61
:1006F000002010BD40F233439A42A2F2334203DCA1
:10070000524200F057F810BD904010BD00F000427A
:1007100030F000400AD0C10D01F56071C0F3160041
:1007200042EA0151C20840071143704700200146C8
:10073000704701F0004330B421F0004150EA01025B
:1007400006D00A0DA2F56072C1F31301002A02DC83
:1007500030BC00207047440F44EAC104C100E018D7
:1007600030BC00EBC25000F047B830B50B46014634
:1007700000202022012409E021FA02F59D4205D340
:1007800003FA02F5491B04FA02F52844151EA2F1EA
:100790000102F1DC30BD202A04DB203A00FA02F12C
:1007A000002070479140C2F1200320FA03F319435F
:1007B00090407047202A04DB203A21FA02F0002101
:1007C000704721FA02F3D040C2F120029140084361
:1007D00019467047202A06DBCB17203A41FA02F06F
:1007E00043EAE07306E041FA02F3D040C2F120028E
:1007F00091400843194670470029A8BF7047401C24
:10080000490008BF20F00100704710B4B0FA80FC26
:1008100000FA0CF050EA010404BF10BC704749B163
:10082000CCF1200421FA04F411FA0CF118BF0121D3
:1008300021430843A3EB0C01CB1D4FEA00614FEAB3
:10084000102042BF002010BC704700EBC350104482
:100850000029A4BF10BC7047401C490008BF20F00D
:10086000010010BC704710B5141E73F1000408DAC3
:10087000401C41F1000192185B411A4301D120F064
:10088000010010BD2DE9F04D92469B4611B1B1FA21
:1008900081F202E0B0FA80F220329046FFF77BFF4F
:1008A00004460F4640EA0A0041EA0B0153465A4605
:1008B000084313D0114653EA010019D0C8F1400291
:1008C0005046FFF777FF05460E46504659464246CA
:1008D000FFF761FF084305D0012004E020463946B8
:1008E000BDE8F08D0020054346EAE0762C4337430F
:1008F0000A986305E40AA0EB08000022FD0A44EA16
:1009000047540A3002D500200146E9E701051019D5
:100910006941DDE9084500196941BDE8F04DA2E7EC
:100920002DE9F04D81EA030404F0004B21F000456D
:1009300014464FF0000A23F0004150EA050220D08F
:1009400054EA01021DD0C5F30A570246C5F313034A
:10095000C1F31300C1F30A5640F4801543F4801329
:10096000A7EB0608101BD64608F2FD3873EB05000E
:1009700002D308F1010801E092185B41B8F1000FC1
:1009800003DA00200146BDE8F08D00204FF480110D
:10099000064684460EE0171B73EB050705D3121BB2
:1009A00063EB050306434CEA010C49084FEA3000AB
:1009B00092185B4150EA0107EDD152EA030012D0D0
:1009C00082EA040083EA0501084305D0101BAB410D
:1009D00006D20122002306E000224FF0004302E08D
:1009E0006FF0010253101AEB06004CEB085110EBAC
:1009F0000A0041EB0B01BDE8F04DFFF734BF0000EA
:100A0000064C074D06E0E06840F0010394E807005B
:100A100098471034AC42F6D3FFF7B8FBB058000843
:100A2000D058000870B521F0004303430CD0C1F347
:100A30000A550024D5EB040564EB0403D617AD1A60
:100A4000B34102DB0020014670BD201841EB02518A
:100A500070BD70B58C1810F8015B15F0070301D15B
:100A600010F8013B2A1106D110F8012B03E010F811
:100A7000016B01F8016B5B1EF9D12B0705D4002334
:100A8000521E0DD401F8013BFAE710F8013BCB1AD6
:100A9000921C03E013F8015B01F8015B521EF9D5CB
:100AA000A142D8D3002070BD10B50146806B026C06
:100AB00012F0500F05D0026CD20626D500F032FE9F
:100AC00010BD016C41F40071016401688A6812F084
:100AD000405F17D1027EAAB9CA6A12F4700F02D021
:100AE0008A6852050ED44A6822F020024A60016CDE
:100AF00021F480710164016CC90403D4016C41F0DC
:100B00000101016400F00CFE10BD806BC26CBDE8F9
:100B100010400846104710B5806B40210164416CBD
:100B200041F00401416400F0FDFD10BD10B5806B83
:100B300000F0F7FD10BD00004B4910B5D1F80423BB
:100B400022F44032C1F80423D1F8042343681A4345
:100B5000C1F8042301684A6822F480724A6001687F
:100B60004A68036942EA03224A6001684A6822F03F
:100B700040724A6001684A6883681A434A600168A3
:100B80008A6822F400628A6001688A68C3681A432E
:100B90008A60816A6FF07062D14201688A6822F0CF
:100BA00070628A6001688A680CD0836A1A438A601E
:100BB00001688A6822F040528A6001688A68C36AC4
:100BC0001A4301E022F040528A6001688A6822F0EC
:100BD00002028A6001688A68037E42EA43028A60F0
:100BE00090F82010002901684A6815D042F400628C
:100BF0004A6001684A6822F460424A6001684B68B2
:100C00004FF46044426A94FAA4F4B4FA84F4521E95
:100C1000A24013434B6002E022F400624A60016884
:100C2000CA6A22F47002CA620168CA6A838B0F4CD6
:100C300004EB03531A43CA6201688A6822F4007203
:100C40008A6001688A6890F8303042EA43228A60FC
:100C500001688A6822F480628A6001688A68406953
:100C600042EA8020886010BD002001400000F0FFB3
:100C70001FB50748818844890389C2888DE81E0012
:100C8000438802880348017803A002F0CBFF1FBD10
:100C9000E006002001000020256420414443313A51
:100CA00025642D414443323A25642D414443333A6F
:100CB00025642D414443343A25642D414443353A5B
:100CC00025642D414443363A25640D0A0000000096
:100CD000F0B586B0002002464FEA0D0141F8202011
:100CE000401CC0B20628F9D3244F002007F13C0273
:100CF00002F13C0302F1780402F1B40502F1F006BE
:100D000037F810E0DDF800C0F444CDF800C032F848
:100D100010E0DDF804C0F444CDF804C033F810E06E
:100D2000DDF808C0F444CDF808C034F810E0DDF870
:100D30000CC0F444CDF80CC035F810E0DDF810C05C
:100D4000F444CDF810C036F810E0DDF814C0401CB3
:100D5000F444C0B2CDF814C01E28D1D30020084CF2
:100D60001E2200BF51F82030B3FBF2F324F81030FC
:100D7000401CC0B20628F5D306B0F0BD78050020AF
:100D8000E00600202DE9F041354D04462888FFF7A4
:100D900064FC344E344F32463B46FFF7DBFBFFF733
:100DA000C8FC04F00DFBFFF765FC05F10C0121F810
:100DB00014006888FFF751FC32463B46FFF7CAFB38
:100DC000FFF7B7FC04F04AFBFFF754FC05F14801BC
:100DD00021F81400A888FFF740FC32463B46FFF795
:100DE000B9FBFFF7A6FC04F087FBFFF743FC05F116
:100DF000840121F81400E888FFF72FFC32463B46B7
:100E0000FFF7A8FBFFF795FC04F0C4FBFFF732FCEB
:100E100005F1C00121F814002889FFF71EFC3246B5
:100E20003B46FFF797FBFFF784FC04F001FCFFF75C
:100E300021FC05F1FC0121F814006889FFF70DFC85
:100E400032463B46FFF786FBFFF773FC04F03EFC9F
:100E5000FFF710FC05F59C7121F81400BDE8F08146
:100E60006C050020BE9F1A2FDD24F43F00F03ABF2E
:100E700070B5584E0121304601F08AF8002872D032
:100E80000020554C0025217C88426ED0217A491CD7
:100E9000C9B22172032900D920740221304601F021
:100EA00077F8002879D00020617C884277D0617A79
:100EB000491CC9B26172032900D96074042130460B
:100EC00001F066F800286CD00020A17C88426AD02E
:100ED000A17A491CC9B2A172032900D9A0740821C2
:100EE000304601F055F8E8B30020E17C88425FD03D
:100EF000E17A491CC9B2E172032900D9E074374E86
:100F00000121304601F044F870B30020217D884271
:100F100052D0217B491CC9B22173032900D9207505
:100F20000221304601F034F888B30020617D884208
:100F300046D0617B491CC9B26173032900D9607531
:100F40000421304601F024F878B30020A17D8842C6
:100F50003AD0A17B491CC9B2A173032900D9A0755D
:100F6000082103E022E014E024E014E0304601F020
:100F70000FF858B30020E17D884229D0E17B491C5D
:100F8000C9B2E173032900D9E07570BD05E015E031
:100F900005E0012075E725727FE7012084E765728F
:100FA0008CE7012091E7A57299E70BE001209CE70F
:100FB000E572A4E70120A9E72573B1E70120B5E7B1
:100FC0006573BDE70120C1E7A573C9E70120D2E73A
:100FD000E573DAE70008024000000020000002404C
:100FE000FEE700001CB51C480178002933D01B4CDB
:100FF000002101702078303809282CD860783038EA
:10100000092828D8A0783038092824D8E078303842
:10101000092820D82079303809281CD86079303840
:10102000092818D80EA002F0FDFD6079217930382A
:101030003039C0B2C9B2CDE90010E0783038C3B25F
:10104000A0783038C2B260783038C1B220783038F9
:10105000C0B202F0A2F81CBD02000020EC06002085
:101060004461746120636F6D31206F6B0D0A000065
:10107000214808B5016841F001010160006800F0F5
:10108000010000901D48016842F21070814203D3B4
:10109000B1FBF0F2521E00E000224FF0804082626D
:1010A000174A89085160836A5B1CB1FBF3F3052B77
:1010B00007D3836A5B1C03EB8303B1FBF3F1491E87
:1010C00000E000211160C162C16841F00101C1600E
:1010D0000C4A002182F800144FF0E0224FF08051BA
:1010E000C2F80011016841F001010160416941F05D
:1010F0000101416108BD0000403802405C0500204C
:10110000280000201CE000E0014800F079BC00004D
:10111000C408002001681823CAB2103AB2FBF3F2E7
:10112000054B6FF30901032A9B5CC36500D9091DB8
:1011300081650846704700006C57000810B50146ED
:1011400000208B698A6A4FF0C07453B1B3F5005F19
:1011500015D072B1012A0CD0022A0AD0032A09D173
:1011600004E01AB1012A06D0022A03D1C96AC901D2
:1011700000D5012010BDC96AA142FAD010BD002AD5
:10118000F7D0012AF2D0022AF3D0032AF3D010BDFF
:1011900030B50468256825F48025256004686360FF
:1011A0008368402B036803D099600068C26030BD3B
:1011B0009A600068C16030BD7047000038B54D4C82
:1011C0001E205021C4E901015F21C4E903016E2101
:1011D000C4E905017D21C4E907018C21C4E90901A5
:1011E000E0629B20002220631146F02003F032FED3
:1011F00010200090D4E901015F231A46401F491FC7
:1012000003F0A0FCD4E901015F22401F0A3103F082
:10121000B3F9D4E903015F22401F0A3103F0ACF9AE
:10122000D4E905015F22401F0A3103F0A5F9D4E992
:1012300007015F22401F0A3103F09EF9D4E909013A
:101240005F22401F0A3103F097F900221146104631
:1012500003F000FE28A104F18C0002F0F3FCD4E9B5
:101260000112002304F18C0003F062FD24A104F1BB
:10127000B40002F0E7FCD4E90312002304F1B40047
:1012800003F056FD20A104F1DC0002F0DBFCD4E900
:101290000512002304F1DC0003F04AFD1CA104F553
:1012A000827002F0CFFCD4E90712002304F58270AB
:1012B00003F03EFD18A104F5967002F0C3FCD4E9DA
:1012C0000912002304F5967003F032FD14A104F511
:1012D000AA7002F0B7FCD4E90B12002304F5AA703F
:1012E00003F026FD4E206060E0606061E0616062B6
:1012F000E06238BDD4030020414443313A2000006D
:10130000414443323A200000414443333A20000034
:10131000414443343A200000414443353A20000020
:10132000414443363A20000038B510248C231A4635
:101330001E218220009403F005FC8E231A461D21F5
:101340008120009403F0FEFB90231A461C2180208C
:10135000009403F0F7FB92231A461B217F20009490
:1013600003F0F0FB38BD00002DE9F05F00224FF0E4
:101370000A0B4FF0320A4FF05A094FF08208AA27A1
:10138000D226FA25DC241146104603F063FD002323
:10139000224659464BA003F0CBFC0023224651467F
:1013A0004AA003F0C5FC00232246494649A003F0A9
:1013B000BFFC00232246414648A003F0B9FC0023AD
:1013C0002246394647A003F0B3FC002322463146AB
:1013D00046A003F0ADFC00232246294645A003F0B9
:1013E000A7FC002322464FF4917144A003F0A0FC17
:1013F000444C202104F180052078424201EB420157
:1014000000F10A0201EBD17102EB6102E26400F12A
:10141000320202EB6102626500F15A0202EB6102E4
:10142000E26500F1820202EB6102626600F1AA024B
:1014300002EB6102E26600F1D20202EB6102626736
:1014400000F1FA0202EB610200F59170E26700EB35
:1014500061006860C820A8602860A0672067A06657
:101460002066A065002220651146104603F0F2FCBC
:101470002278D4E9130103F0D3F82278D4E91501D6
:1014800003F0CEF82278D4E9170103F0C9F82278E6
:10149000D4E9190103F0C4F82278D4E91B0103F060
:1014A000BFF82278D4E91D0103F0BAF82278296840
:1014B000E06F03F0B5F82278D5E90101BDE8F05FEF
:1014C00003F0AEB84E757431000000004E757432F2
:1014D000000000004E757433000000004E75743437
:1014E000000000004E757435000000004E75743623
:1014F000000000004E757437000000004E7574380F
:1015000000000000D403002038B500221146FF205F
:1015100003F0A0FC1E2228214FF4827003F058F93A
:1015200000221146FF2003F095FCB42000904623D2
:1015300032227821AF2003F029FB002000904623BF
:1015400032227821372003F021FB0022FF211046B0
:1015500003F080FC4FF4877000901E232822B421F2
:10156000732003F013FB0021FF22084603F072FCF6
:101570005A200246009032233C21732003F006FBE0
:1015800000221146FF2003F065FC4FF6FF731E2278
:101590007821732003F010FA0021FF22084603F09F
:1015A00059FC4FF4784423461E227821FA2003F098
:1015B00069F90021FF22084603F04CFC01B02346E4
:1015C000BDE830401E22B421FA2003F025BA70474E
:1015D00078B50024009490F83C20012A19D001220B
:1015E00080F83C200A6807230568092A13D9EE68A9
:1015F0000A3A02EB420293409E43EE600B788A68FF
:101600000A3B03EB43039A400368DD682A43DA6030
:1016100010E0022078BD2E6902EB420293409E4307
:101620002E610A788B6802EB4202934002681569CA
:101630002B4313614A681F23072A13D205686E6B78
:10164000521E02EB820293409E436E630B790A881E
:101650005B1E92B203EB83039A4003685D6B2A43DF
:101660005A6327E005680D2A12D22E6BD21F02EBB7
:10167000820293409E432E630B790A88DB1F92B24D
:1016800003EB83039A4003681D6B2A431A6311E03E
:10169000EE6A0D3A02EB820293409E43EE620B79B2
:1016A0000A880D3B92B203EB83039A400368DD6A1C
:1016B0002A43DA62174A0368934208D10B68122B57
:1016C00005D1D2F8043343F48003C2F8043303682D
:1016D00093421AD10B68102B01D0112B15D1D2F8DF
:1016E000043343F40003C2F80433096810290CD111
:1016F00009490A4A0968B1FBF2F101EB810149008D
:1017000000E0491E00910029FBD180F83C400020F8
:1017100078BD0000002001405C05002040420F0021
:1017200070477047704770B504004FF0000503D054
:10173000206C002610B107E0012070BD204600F0AB
:101740001DF8666484F83C60206CC00610D4206CE0
:1017500020F4885040F0020020642046FFF7ECF9A6
:101760006664206C20F0020040F00100206400E07C
:10177000012584F83C60284670BD000070B586B035
:10178000064614216846FEF764FD25493068884204
:1017900043D124480025016841F48071016000684C
:1017A000204900F4807014390590086840F0010069
:1017B0000860086800F001000590086840F0040027
:1017C00008600868032400F004000590F0208DE80C
:1017D00031006946144800F097FA30208DE8310056
:1017E0006946124800F090FA124C1148C4E900050D
:1017F0000015A560C4E90350400060618000A0614D
:101800004011E0610002C4E90805204600F0C8F973
:1018100008B1FFF7DCFEB463A66306B070BD00003C
:10182000002001404438024000000240000802400D
:1018300010640240C4080020F8B50D46002104469B
:10184000009190F83C00012807D0012084F83C006A
:1018500020688368DB0702D011E00220F8BD8368AE
:1018600043F0010383603248324B0068B0FBF3F071
:1018700000EB400000E0401E00900028FBD12068F3
:101880008368DB0749D0236C40F20166B34343F41D
:10189000807323644068400505D5206C20F4005017
:1018A00040F480502064206CC00404D5606C20F0AB
:1018B0000600606400E0616484F83C10A16B1E487F
:1018C000C863A16B1D480864A16B1D48C8642168EA
:1018D0006FF0220008602068416841F0806141603B
:1018E0002068816841F480718160216813462A462E
:1018F0004C31A06B00F0BEF91249D1F80403C006C8
:10190000206801D0884210D1816811F0405F0CD16D
:10191000816841F08041816007E0206C40F0100058
:101920002064606C40F0010060640020F8BD00009D
:101930005C05002040420F00A90A00082D0B00089A
:10194000170B0008002001402DE9F0410446876D87
:1019500000F028FB064694F835000025022806D042
:101960008020606584F834500120BDE8F081206853
:10197000016821F0160101602068416921F08001B1
:101980004161206C08B9A06C20B12068016821F089
:10199000080101602068016821F0010101600CE08C
:1019A00000F000FB801B052807D92020606503207C
:1019B00084F8350084F83450D7E720680068C00701
:1019C000EED194F85C103F208840B860012084F884
:1019D000350084F834500020C7E790F8351002290C
:1019E00003D08021416501207047052180F8351022
:1019F0000068016821F001010160002070470000CB
:101A00002DE9F84304464FF00009CDF800906348F3
:101A10004FF41651A56D0068B0FBF1F72E6894F8ED
:101A20005C10082000FA01F131420FD021680A68E9
:101A300052070BD50A6822F004020A6094F85C1081
:101A40008840A860606D40F00100606594F85C100B
:101A50004FF0010808FA01F0304208D021684969C6
:101A6000090604D5A860606D40F00200606594F836
:101A70005C1004208840304208D02168096889073A
:101A800004D5A860606D40F00400606594F85C10B7
:101A900010208840304218D021680968090714D501
:101AA000A86020680168490304D50068000308D5D0
:101AB000A16C07E00168C90503D4016821F00801A1
:101AC0000160216C09B12046884794F85C10202001
:101AD0008840304231D021680968C9062DD5A860F8
:101AE00094F8350005282068016806D0490347D5D9
:101AF000006800031DD4616C1CE021F01601016038
:101B00002068416921F080014161206C08B9A06C16
:101B100020B12068016821F00801016094F85C1090
:101B20003F208840A86084F8358084F83490216D87
:101B30001FE0E16B09B120468847606D00282BD07B
:101B4000606DC00714D0052084F835002068016856
:101B500021F0010101600098401C0090B84203D8B8
:101B600020680068C007F6D184F8358084F8349086
:101B7000E16C002910D001B02046BDE8F0430847D1
:101B80000168C905D5D4016821F01001016084F80D
:101B9000358084F83490CCE7BDE8F8835C050020FC
:101BA0002DE9F041044600F0FDF906465CB1022043
:101BB00084F83500002584F834502068016821F04D
:101BC000010101600DE00120BDE8F08100F0EAF9BB
:101BD000801B052805D920206065032084F8350086
:101BE000F2E720680068C007F0D122681168204839
:101BF0000140D4E901031843D4E9033633431843C1
:101C000063691843A3691843E3691843236A1843B7
:101C10000843616A042903D1D4E90B13194308432B
:101C2000106020684069666A20F0070130460E4364
:101C3000012704280CD1A06A0643E06A40B120467F
:101C4000FFF77CFA20B14020606584F83570BAE770
:101C5000206846612046FFF75DFA94F85C203F213A
:101C600091408160656584F835700020ACE7000024
:101C70003F8010F02DE9F0410446866D90F8340065
:101C8000002501280DD0012084F8340094F8357027
:101C90000020012F07D084F8340002252846BDE833
:101CA000F0810220FBE7022784F83570606520464A
:101CB000FFF76EFA94F85C103F208840B06020680F
:101CC000016841F016010160206C20B120680168B4
:101CD00041F0080101602068016841F001010160E4
:101CE000DCE7000031B500F05DF9009C0546601CA2
:101CF00002D004480078044400F054F9401BA0428C
:101D0000FAD338BD500500202DE9F04FDFF850928E
:101D1000002309F1040A012603250AF1040B85B00A
:101D20000F270BF1040E12E1224606FA03F42240BB
:101D30007ED091F804C00CF0030CBCF1010F02D06E
:101D4000BCF1020F26D1D0F80880CDF800804FEA10
:101D5000430805FA08FCCDF81080DDF8008028EA79
:101D60000C08CDF80080D1F80CC0DDF810800CFA1A
:101D700008FCDDF800804CEA080CC0F808C0D0F878
:101D800004C02CEA040C0C79C4F300149C4044EA0F
:101D90000C0444600C79E443A40712D0C4684FEAF1
:101DA000430CCDF808C005FA0CFC24EA0C04D1F869
:101DB0000880DDF808C008FA0CF848EA0408C0F802
:101DC0000C800C7904F00304022C16D1DC0800EB23
:101DD000840CCDF808C0DCF820C05C074FEAD4685A
:101DE00007FA08F42CEA040C0C6904FA08F444EA33
:101DF0000C04DDF808C0CCF8204004684FEA430822
:101E000005FA08FC24EA0C0491F804C00CF0030C59
:101E10000CFA08FC4CEA040CC0F800C04C6814F43E
:101E2000403F05D04F4CD4F800C04CF4804C00E04B
:101E30008CE0C4F800C0246823F0030C04F4804450
:101E40000094494C64440294D4F808484FEA837CD7
:101E50004FEA1C7807FA08FC24EA0C04DFF80CC1EE
:101E6000604502D14FF0000C39E0DFF804C1604555
:101E700002D14FF0010C32E0DFF8F8C0604502D12A
:101E80004FF0020C2BE0DFF8F0C0604502D14FF0BC
:101E9000030C24E0DFF8E4C0604502D14FF0040CED
:101EA0001DE0DFF8DCC0604502D14FF0050C16E004
:101EB000DFF8D0C0604502D14FF0060C0FE0DFF82C
:101EC000C8C0604502D14FF0070C08E0DFF8BCC085
:101ED000604502D14FF0080C01E04FF0090C0CFAFC
:101EE00008FC4CEA040C029CC4F808C8D9F800406D
:101EF000CC46D1F8048094435FEAC83800D5144337
:101F0000CCF80040DAF80040D446D1F8048094437D
:101F10005FEA883800D51443CCF80040DBF8004075
:101F2000DC46D1F8048094435FEAC82800D5144306
:101F3000CCF80040DEF80040F446D1F80480944329
:101F40005FEA882800D51443CCF800405B1C0A687F
:101F50001446DA407FF4E8AE05B0BDE8F08F00002B
:101F6000003C014044380240003001400000024083
:101F70000004024000080240000C02400010024031
:101F80000014024000180240001C024000200240E1
:101F90000069084000D0012070470AB18161704794
:101FA0000904FBE7014880687047000050050020E5
:101FB0000248816802781144816070475005002012
:101FC0000B4810B5016841F400710160016841F4EB
:101FD00080610160016841F480710160032000F0BC
:101FE0006FF8002000F006F800F024F8002010BD83
:101FF000003C024070B50D4D04464FF47A712878CC
:10200000B1FBF0F00A490968B1FBF0F000F006FB03
:1020100048B9102C07D200222146501E00F030F89B
:1020200000206C6070BD012070BD000050050020D4
:102030005C0500200A4808B5016841F48041016050
:10204000006800F4804000900548001F016841F0DE
:1020500080510160006800F08050009008BD0000D1
:1020600044380240002809DB00F01F0201219140A2
:102070004009800000F1E020C0F800117047000026
:10208000F0B40E4B1B680C46C3F30223C3F10705E3
:10209000042D00D90425191D072901D2002300E0D1
:1020A000DB1E012606FA05F1491E214099409E409B
:1020B000761E16403143F0BC01F0FDBD0CED00E092
:1020C000064900F0070208684FF6FF03184040EA8F
:1020D0000220034A10430860704700000CED00E046
:1020E0000000FA052DE9F0470E46050063D0DFF841
:1020F0001C81D8F80000F7B200F00F00B04207D200
:1021000088F80070D8F8000000F00F00B04252D1FB
:1021100028683F4C810712D5400703D5206840F45A
:10212000E05020602878000703D5206840F4604024
:1021300020602068A96820F0F0000843206028781B
:10214000C0072BD0324968680839012810D00968C7
:10215000022810D0890700292DDA216821F0030117
:1021600001432160FFF71EFF814641F2883A0EE0ED
:1021700009688903EFE78901EDE700BFFFF712FF68
:10218000A0EB0901514502D90320BDE8F087206882
:10219000696800F00C00B0EB810FEFD1D8F80010A7
:1021A000404601F00F01B14207D90770006800F006
:1021B0000F00B04201D00120E7E72878400705D59D
:1021C0002068E96820F4E050084320602878000780
:1021D00006D52068296920F4604040EAC1002060EB
:1021E00000F04EF82168F02292FAA2F201F0F0011C
:1021F000B2FA82F2D140074A515CC84006490860F1
:1022000006480068FFF7F6FE0020BEE7003C0240EB
:1022100008380240745700085C050020540500206F
:1022200008480949006809684FF4E05292FAA2F29E
:1022300001F4E051B2FA82F2D140044A515CC84044
:10224000704700005C0500200838024084570008F1
:1022500008480949006809684FF4604292FAA2F2FE
:1022600001F46041B2FA82F2D140044A515CC840A4
:10227000704700005C0500200838024084570008C1
:10228000154810B5006810F00C02144813D014491A
:10229000042A0FD0082A0ED10F4C241F226823686D
:1022A00002F03F025B0207D52068C0F38810A0FB54
:1022B000010106E0084610BD2168C1F38811A1FBA9
:1022C00000010023FDF77AFF2168C1F30141491C99
:1022D0004900B0FBF1F010BD083802400024F400C2
:1022E00040787D012DE9F84F04007BD0DFF814B36E
:1022F0002078ABF10406C007A6F1040536D0DBF860
:1023000000105846C1F38101012907D00068C0F3CD
:102310008100022809D13068400206D52868800370
:1023200024D560680028E0D020E0B6492079891FD4
:102330000870606868B1FFF735FE074605E000BF2A
:10234000FFF730FEC01B642876D828688003F7D5D5
:102350000CE0FFF727FE074605E000BFFFF722FE6F
:10236000C01B6428F0D828688003F7D42078DFF8F1
:10237000988280074FF0000944D5DBF800105846DA
:1023800011F00C0F4FF0F80A07D00068C0F381007D
:10239000022809D13068400206D42868800715D584
:1023A000E06801281ED111E0E068E0B10120C8F822
:1023B0000000FFF7F7FD074605E000BFFFF7F2FD5D
:1023C000C01B0228C0D828688007F7D528689AFA69
:1023D000AAF22169B2FA82F220F0F8009140084393
:1023E00028600FE00AE1C8F80090FFF7DBFD074620
:1023F00005E000BFFFF7D6FDC01B02281CD82868E7
:102400008007F7D42078000727D5DFF8F8A17F48A8
:1024100061690AF16C0A81B101210160FFF7C2FD17
:10242000074604E0FFF7BEFDC01B022804D8DAF817
:1024300000008007F6D510E082E0C0F80090FFF7BA
:10244000B1FD074605E000BFFFF7ACFDC01B022849
:1024500076D8DAF800008007F6D4207840075FD5F8
:10246000DFF8A0A100270AF1380ADAF80000C0005E
:102470000BD4DAF8001041F08051CAF80010DAF8F5
:102480000000012700F0805000906148016841F48D
:10249000807101600168C90512D4016841F480713E
:1024A0000160FFF77FFD009006E000BFFFF77AFDB7
:1024B0000099401A02287ED855480068C005F5D515
:1024C0005049207A68310870A06888B1FFF76AFD2A
:1024D000009007E0FFF766FD0099411A41F288304D
:1024E000814268D84748683000688007F2D510E01C
:1024F000FFF758FD009007E0FFF754FD0099411ADF
:1025000041F28830814256D83E48683000688007E2
:10251000F2D42FB1DAF8001021F08051CAF800107F
:10252000A069B8B3DBF80010C1F38101022949D0DA
:102530000228C8F8609004D0FFF734FD04463DE05F
:1025400039E0FFF72FFD074605E000BFFFF72AFD42
:10255000C01B64282FD828688001F7D4D4E907016C
:102560000843616A94F82C20890141EA026108431A
:10257000A16A284A490802EB014108433168264A0A
:102580001140084330600120C8F86000FFF70AFDE1
:10259000044606E034E000BFFFF704FD001B64289A
:1025A00009D828688001F7D52AE000BFFFF7FAFCB8
:1025B000001B642802D90320BDE8F88F2868800139
:1025C000F4D41DE00128F7D03068E26900F48001FE
:1025D000914213D1226A00F03F0191420ED1616A0B
:1025E000C0F38812914209D1A26A00F440319142AD
:1025F00004D1E16A00F07060884201D00120DBE77D
:102600000020D9E70838024000004742800E4742C8
:10261000007000400000FFFF0080BCF010B5401EBD
:10262000B0F1807F01D3012010BD4FF0E024606144
:102630000F21601701F03FFB0020A06107202061FF
:10264000002010BD70477047F8B502680446106856
:10265000D168536910F00F0F4FF0000553D003F00D
:10266000010601F4907737435FD0C20705D0CA0551
:1026700003D5226C42F001022264420705D5DA0735
:1026800003D0226C42F002022264820705D5DA07E9
:1026900003D0226C42F004022264020707D501F045
:1026A0002002324303D0226C42F008022264226CE2
:1026B000002A34D0800604D5880602D5204600F0D2
:1026C00067FF20684069216CC0F38010090700D4BF
:1026D00030B3204600F044FF2068416949061BD50D
:1026E000416921F040014161A06BA8B159490165E0
:1026F000A06BFFF772F9002811D0A06B016D01B03B
:10270000BDE8F040084783060FD58B060DD520465F
:10271000BDE8F84000F03CBF2046FFF794FFF8BD4D
:102720002046FFF790FF2564F8BD266B2023012E7D
:1027300053D1C60651D5CE064FD5106850680090CB
:10274000506940062BD5A16B086840680004000C56
:10275000EAD0A68D8642E7D9E085C869B0F5807FCA
:1027600018D0D06820F48070D0602068416921F0D2
:10277000010141612068416921F04001416184F813
:102780003E3025632068C16821F01001C160A06B54
:10279000FFF7DAF8A08DE18D401A81B219E0A08D23
:1027A000E18D401A81B2E08D0028BDD00029BBD058
:1027B000D06820F49070D0602068426922F0010255
:1027C000426184F83E3025632068C26822F010021E
:1027D000C2602046FFF736FFF8BD05062BD50D0673
:1027E00029D594F83D002128F6D1A068B0F5805F86
:1027F00001D12069B0B1206A411C216221680078B2
:102800004860E08C401E0004000CE084E4D12068A5
:10281000C16821F08001C1602068C16841F04001B9
:10282000C160F8BD206A0088C0F308005060206ACB
:10283000801C2062E5E74006F3D54806F1D5D16853
:10284000204621F04001D16084F83D3000F0F9F8D5
:10285000F8BD00005135000870B5040004D094F8AC
:102860003D00002510B106E0012070BD84F83C5009
:10287000204600F023F8242084F83D002068C16839
:1028800021F40051C160204600F0DEFE206801699D
:1028900021F4904101612068416921F02A014161E0
:1028A0002068C16841F40051C1602564202084F88B
:1028B0003D0084F83E00002070BD000070B586B079
:1028C000044614216846FDF7C4FC2B4E2268002103
:1028D0002A48022303240725B24222D1274A143270
:1028E000166846F010061660126802F01002059293
:1028F000026842F001020260006802AA00F00100D2
:10290000059082E832006002CDE9000369461C4868
:10291000FFF7FAF9002211462520FFF7B1FB252029
:1029200025E0184EB24224D1144A1032166846F4FB
:1029300080261660126802F480220592026842F036
:1029400002020260006802AA00F00200059082E81C
:1029500032004FF44060CDE9000369460A48FFF7B2
:10296000D3F9002211462720FFF78AFB2720FFF723
:1029700079FB06B070BD0000001001403038024005
:102980000000024000480040000402407047000080
:102990002DE9F843044690F83D001F4616460D46C3
:1029A00020284CD1C5B1BEB194F83C00012846D0D6
:1029B000012084F83C004FF00008C4F8408021203A
:1029C00084F83D00FFF7EEFAA6848146E684A0680D
:1029D000B0F5805F03D004E00120BDE8F8832069F2
:1029E00028B12E465FF0000584F83C800EE00026FA
:1029F000FAE78021204600F0B9FEA0B9AEB116F882
:102A0000010B21684860E08C401EE084E08C4B465E
:102A10004FF0000200970028EBD14FF04001204614
:102A200000F0A4FE30B10320D7E735F8020BC0F365
:102A30000800E6E7202084F83D000020CDE70220D2
:102A4000CBE77047002204210148FFF7A6BA000037
:102A50000010024030B587B014216846FDF7F9FB3D
:102A60001448016841F0100101600068124D00F047
:102A700010000590012204212846FFF78EFA00225B
:102A800038212846FFF789FA01240C20CDE90004FB
:102A90000294694628460394FFF736F93020CDE9C1
:102AA00000040220CDE9024069462846FFF72CF9D0
:102AB00007B030BD303802400010024010B5064C5F
:102AC000012208212046FFF768FA20460022BDE8CF
:102AD00010400821FFF761BA0010024010B50A4CFF
:102AE00008B1012200E0002220212046FFF755FA1C
:102AF000012210212046FFF750FA20460022BDE8AF
:102B000010401021FFF749BA0010024070B50125AE
:102B10000646082406EA0500FFF7E0FF6806050EF2
:102B2000641E14F0FF04F5D170BDFEE7002102041D
:102B300000D50121420401D541F00201820401D5F2
:102B400041F00401C20401D541F00801020501D59C
:102B500041F01001420501D541F02001820501D567
:102B600041F04001C20501D541F08001020601D5C6
:102B700041F48071420601D541F40071820601D50D
:102B800041F48061C20601D541F40061020701D51C
:102B900041F48051420701D541F40051820701D52B
:102BA00041F48041C00701D041F400410148016077
:102BB00070470000140C0240012280210148FFF7F9
:102BC000ECB90000000402402DE9F04186B0142168
:102BD0006846FDF73EFB2C48016841F002010160A8
:102BE000016801F002010591016841F008010160EE
:102BF0000068012400F0080005904026CDE900643B
:102C0000DFF88880022569464046CDE90245FFF796
:102C10007BF88020CDE9000469464046CDE90245B5
:102C2000FFF772F81020CDE9000469464046CDE96F
:102C30000245FFF769F82020CDE9000469464046C7
:102C4000CDE90245FFF760F80827CDE90074694631
:102C50004046CDE90245FFF757F84FF6FF70CDE942
:102C6000000469460A48CDE90245FFF74DF80748D8
:102C7000183006600760012220214046FFF78DF9D9
:102C800006B0BDE8F0810000303802400004024088
:102C9000000C024010B50C4C012280212046FFF7A9
:102CA0007CF9C820FFF71EF807494FF4800018315F
:102CB0000860C820FFF716F820460122BDE8104042
:102CC0008021FFF76AB9000000040240054B00B5FF
:102CD00008211960C9041960FFF728FF4020186017
:102CE00000BD000018040240054B00B54FF4800100
:102CF0001960C9101960FFF719FF4020186000BD66
:102D000018040240064B00B541EA00200821196072
:102D1000C9041960FFF70AFF4020186000BD0000D9
:102D20001804024010B5FFF74FFFFFF745FFFFF70C
:102D3000B1FF4FF4FA70FEF7D5FF0120FFF7D4FF83
:102D40004FF47A70FEF7CEFFCB20FFF7CDFF39208E
:102D5000FFF7BCFF2C20FFF7B9FF0020FFF7B6FFFD
:102D60003420FFF7B3FF0220FFF7B0FFCF20FFF7BB
:102D7000BBFF0020FFF7AAFFC120FFF7A7FF30200D
:102D8000FFF7A4FFE820FFF7AFFF8520FFF79EFFC6
:102D90000020FFF79BFF7820FFF798FFEA20FFF75E
:102DA000A3FF0020FFF792FF0020FFF78FFFED2029
:102DB000FFF79AFF6420FFF789FF0320FFF786FFE4
:102DC0001220FFF783FF8120FFF780FFF720FFF736
:102DD0008BFF2020FFF77AFFC020FFF785FF23201D
:102DE000FFF774FFC120FFF77FFF1020FFF76EFF92
:102DF000C520FFF779FF3E20FFF768FF2820FFF787
:102E000065FFC720FFF770FF8620FFF75FFF3620C2
:102E1000FFF76AFF4820FFF759FF3A20FFF764FFEA
:102E20005520FFF753FFB120FFF75EFF0020FFF7AB
:102E30004DFF1820FFF74AFFB620FFF755FF082087
:102E4000FFF744FF8220FFF741FF2720FFF73EFFF7
:102E5000F220FFF749FF0020FFF738FFE020FFF7DF
:102E600043FF0F20FFF732FF3120FFF72FFF2B200A
:102E7000FFF72CFF0C20FFF729FF0E20FFF726FF9E
:102E80000820FFF723FF4E20FFF720FFF120FFF778
:102E90001DFF3720FFF71AFF0720FFF717FF10204D
:102EA000FFF714FF0320FFF711FF0E20FFF70EFFBF
:102EB0000920FFF70BFF0020FFF708FFE120FFF7D5
:102EC00013FF0020FFF702FF0E20FFF7FFFE142084
:102ED000FFF7FCFE0320FFF7F9FE1120FFF7F6FED7
:102EE0000720FFF7F3FE3120FFF7F0FEC120FFF7C8
:102EF000EDFE4820FFF7EAFE0820FFF7E7FE0F206F
:102F0000FFF7E4FE0C20FFF7E1FE3120FFF7DEFEC5
:102F10003620FFF7DBFE0F20FFF7D8FE1120FFF76A
:102F2000E3FE7820FEF7DEFEBDE810402920FFF723
:102F3000DBBE00002DE9FF410021344800910191E2
:102F40000291314A0391C0E90021012404618160AA
:102F5000047680F820102E4AC0E90A210625C561B2
:102F6000C16080F830404461FEF7DDFB08B1FEF738
:102F70002EFB0426CDE90064072469462348029409
:102F8000FEF726FB08B1FEF722FB0527022000977B
:102F9000CDE9010469461D48FEF71AFB08B1FEF7AA
:102FA00016FB03200095CDE9010469461748FEF79A
:102FB0000FFB08B1FEF70BFBCDE90046694613484D
:102FC0000294FEF705FB08B1FEF701FB0E20CDE9E8
:102FD0000007694602940D48FEF7FAFA08B1FEF7B9
:102FE000F6FA0F20CDE90005694602940748FEF77E
:102FF000EFFA08B1FEF7EBFA062206490348FEF79E
:103000001BFCBDE8FF810000002001407C0800207F
:103010000100000F6C050020094808B5016841F463
:10302000800101600068002200F4800000901146D9
:103030003820FFF725F8BDE808403820FFF712B820
:1030400030380240F0B587B014216846FDF701F929
:103050002F480025016841F010010160016801F06E
:1030600010010591016841F004010160016801F05F
:1030700004010591016841F001010160016801F05E
:1030800001010591016841F0020101600068214ED3
:1030900000F002000590012204213046FEF77DFF7A
:1030A000002238213046FEF778FF1B4F0022012115
:1030B0003846FEF772FF01240C20CDE9000402948B
:1030C000694630460394FEF71FFE3020CDE9000428
:1030D0000220CDE9024069463046FEF715FE0F2674
:1030E000CDE9006569460D480295FEF70DFECDE974
:1030F000006569460A480295FEF706FE0094694697
:1031000038460194CDE90245FEF7FEFD07B0F0BD5B
:103110003038024000100240000402400008024023
:10312000000002400C4810B50A4901604FF4E1313B
:103130004160002181600C22C160C0E904128161FC
:10314000C161FFF789FB002803D0BDE81040FEF7FE
:103150003EBA10BD00100140240900200C4810B5F3
:103160000A4901604FF4E1314160002181600C2285
:10317000C160C0E904128161C161FFF76DFB0028E5
:1031800003D0BDE81040FEF722BA10BD0048004051
:1031900068090020FEE7704770472DE9F0410F46AF
:1031A000DDE90658072803D200F083F8064600E060
:1031B0000026072F03D2384600F07BF800E00020FD
:1031C000B10041EA1010C6B266F30704072F04D21B
:1031D000384600F06EF8074600E00027082A03D2C0
:1031E000104600F066F800E00020390141EAD00006
:1031F00060F30F24082A04D2104600F05AF8024661
:1032000000E00022082B03D2184600F052F800E03C
:103210000020510141EA900060F31744082B04D2CA
:10322000184600F046F8024600E00022082D03D2BE
:10323000284600F03EF800E00020910141EA5000ED
:1032400060F31F64082D04D2284600F032F80246CD
:1032500000E000224046B8F1080F02D200F029F841
:1032600000E0002040EAC210C5B23046FFF74EFC35
:10327000C4F30720FFF74AFCC4F30740FFF746FCFE
:10328000200EFFF743FC2846FFF740FCBDE8F04165
:10329000FFF714BC1CB5FFF7DDFB002000900346D0
:1032A000024601460190FFF778FFBDE81C40FFF79A
:1032B000C9BB082813D2DFE800F0120406080A0C84
:1032C0000E1001207047022070470420704708202C
:1032D0007047102070472020704740207047002022
:1032E00070477047014B83E80700704730000020AB
:1032F000014B83E80700704748000020014B83E83A
:103300000700704760000020014B83E8070070470A
:1033100078000020014B83E80700704790000020F0
:10332000034BC3E91E0103F18000026070470000F7
:1033300030000020FEF73CBE30B591B03021684629
:10334000FCF787FF14210CA8FCF783FF012002245F
:10335000039010200094002506940490CDE90750B6
:10336000F020CDE9090404200B906846FEF7BAFF6F
:103370000CA90F2081E831004FF4A0500F90E0021B
:10338000109003210CA8FEF7ADFE11B030BD7047C0
:103390004FF08040016911F0010F02D06FF0010180
:1033A000016100F001B8000010B5154C2078FDF760
:1033B000E9FC2078401CC1B2124821701E290AD3B2
:1033C000002121706178491CC9B26170052902D9B8
:1033D0000521617002E06178052906D301221146BA
:1033E000FEF7DBFDFDF774FC03E000220121FEF790
:1033F000D4FDFDF73DFDA069401CA06110BD00009B
:103400000000002000040240124810B5406800236C
:10341000C1B211480122847934B1012C09D0022CA7
:1034200006D1662914D00EE0222901D182710371E0
:1034300010BD552909D0094C0279A154521C0271C2
:103440000179C829F4D9837110BD02218171F7E790
:103450008270F8E70010014000000020EC06002018
:1034600008B5252000F016FC01480068009008BD52
:103470000010014010B50C4C2068C0F3401028B17A
:10348000E068C0F3401008B1FFF7BEFF606910F0BC
:10349000010F08D02068C0F38000002803D0BDE8E9
:1034A0001040FFF7DDBF10BD00100140124810B5FD
:1034B00040680023C1B211480122C47934B1012C03
:1034C00009D0022C06D1662914D00EE0222901D1A0
:1034D000C271437110BD552909D0094C4279A154DC
:1034E000521C42714179C829F4D9C37110BD02211F
:1034F000C171F7E7C270F8E7004800400000002003
:10350000B407002008B5272000F0C4FB014800687C
:10351000009008BD0048004010B50C4C2068C0F376
:10352000401028B1E068C0F3401008B1FFF7BEFFBB
:10353000606910F0010F08D02068C0F380000028F7
:1035400003D0BDE81040FFF7DDBF10BD00480040CC
:1035500010B5806B0021C185C184FFF774F810BDE0
:103560000168CA6822F49072CA6001684A6922F050
:1035700001024A61016B012904D10168CA6822F085
:103580001002CA60202180F83E10002101637047BC
:1035900008B590F83E10222901D0022008BD8268AB
:1035A0004FF480539A4201D1016921B1816A9A4254
:1035B0001BD04AB10AE00268816A5268C2F308026D
:1035C0000A80816A891C08E0026972B10268526847
:1035D00002F07F020A70816A491C8162C18D491E16
:1035E0000904090CC18503D019E002685268F1E7AB
:1035F0000168CA6822F02002CA600168CA6822F421
:103600008072CA6001684A6922F001024A61202181
:1036100080F83E10016B012903D0FFF7B7F90020B5
:1036200008BD002101630168CA6822F01002CA6067
:1036300001680A68D20602D50A6849680091818D3E
:10364000FFF700F8EBE700002DE9F04104460068C1
:103650000169E26821F44051114301612169A068C8
:10366000E26908436169114322680843D16849F25D
:103670000C6399430143D16020684169A26921F438
:1036800040711143416137492068884202D0364970
:10369000884202D1FEF7DCFD01E0FEF7C1FD0246E3
:1036A000E36964203221B3F5004F02EBC20303EB60
:1036B000021362682BD09200B3FBF2F5B5FBF0F574
:1036C000B3FBF2F66FF018077D4306EB8505B3FBFD
:1036D000F2F601EB0515B5FBF0F5B6FBF0F605F0DB
:1036E000F00505EB0615B3FBF2F6B3FBF2F2B2FB05
:1036F000F0F27A4306EB820201EB0211B1FBF0F02B
:1037000000F00F00216828448860BDE8F081520075
:10371000B3FBF2F6B6FBF0F6B3FBF2F7B3FBF2F550
:103720006FF0180C06FB0CF607EB860601EBC606DD
:10373000B5FBF0F5B6FBF0F62D0106F0F80605EB4B
:103740004605B3FBF2F6B3FBF2F2B2FBF0F202FB7A
:103750000CF206EB820201EBC201B1FBF0F000F0CB
:103760000700CFE700100140001401402DE9F041AF
:10377000984617460E460446069D1DE0681C1BD061
:103780002DB1FEF70FFCA0EB0800A84214D9206869
:10379000C16821F4D071C1602068416921F0010144
:1037A0004161202084F83D0084F83E00002084F828
:1037B0003C000320BDE8F0812068006836EA000084
:1037C00004D00020B842D9D00020F3E70120F9E767
:1037D00010B50348FEF738FFBDE81040FFF74ABEBA
:1037E0002409002010B50348FEF72EFFBDE8104065
:1037F000FFF792BE680900200948C16841F0200126
:10380000C160416941F0010141610648C16841F070
:103810002001C160416941F0010141617047000030
:10382000001001400048004070B5FF2211461046CC
:1038300001F010FB594C002304F18C00D4E9011273
:1038400001F076FA00221146104601F003FB544DB8
:1038500054A104F18C002A8800F0F4F9D4E9011293
:10386000002304F18C0001F063FAFF221146104698
:1038700001F0F0FAD4E90312002304F1B40001F0DE
:1038800057FA00221146104601F0E4FA6A8845A171
:1038900004F1B40000F0D6F9D4E90312002304F1D6
:1038A000B40001F045FAFF221146104601F0D2FAA9
:1038B000D4E90512002304F1DC0001F039FA0022FA
:1038C0001146104601F0C6FAAA8836A104F1DC00C0
:1038D00000F0B8F9D4E90512002304F1DC0001F08E
:1038E00027FAFF221146104601F0B4FAD4E9071274
:1038F000002304F5827001F01BFA002211461046E5
:1039000001F0A8FAEA8827A104F5827000F09AF97C
:10391000D4E90712002304F5827001F009FAFF22AE
:103920001146104601F096FAD4E90912002304F575
:10393000967001F0FDF900221146104601F08AFA56
:103940002A8918A104F5967000F07CF9D4E90912CF
:10395000002304F5967001F0EBF9FF2211461046A2
:1039600001F078FAD4E90B12002304F5AA7001F0F3
:10397000DFF900221146104601F06CFA6A8909A1AC
:1039800004F5AA7000F05EF9D4E90B1204F5AA70F0
:10399000BDE87040002301F0CBB90000D403002043
:1039A000E00600202564000070B5FF221146104695
:1039B00001F050FA304C0A22D4E90D0100F030FE3B
:1039C000D4E90F010A2200F02BFED4E911010A22EA
:1039D00000F026FEFCF724FC772590FBF5F105FBB3
:1039E00011008D306063FCF71BFC90FBF5F105FBCB
:1039F000110029300022A0631146FF2001F02AFAAD
:103A0000D4E90D010A2200F00BFEFCF709FC90FB43
:103A1000F5F105FB11008D30E063FCF701FC90FB34
:103A2000F5F105FB11002930FF222064114600202A
:103A300001F010FAD4E90F010A2200F0F1FDFCF7C1
:103A4000EFFB90FBF5F105FB11008D306064FCF796
:103A5000E7FB90FBF5F105FB11002930A064802203
:103A60006421C82001F0F6F9D4E91101BDE87040E5
:103A70000A2200F0D5BD0000D403002070B55748DD
:103A80005749584C00780A7890420ED008704FF091
:103A90000002114608B1FF2000E0002001F0DAF931
:103AA0002278D4E9130100F0BBFD4F484F4900785C
:103AB0000A7890420ED008704FF00002114608B10B
:103AC000FF2000E0002001F0C5F92278D4E91501BB
:103AD00000F0A6FD4648474900780A7890420ED08B
:103AE00008704FF00002114608B1FF2000E00020EE
:103AF00001F0B0F92278D4E9170100F091FD3E48B9
:103B00003E4900780A7890420ED008704FF00002CB
:103B1000114608B1FF2000E0002001F09BF9227857
:103B2000D4E9190100F07CFD3548364900780A785F
:103B300090420ED008704FF00002114608B1FF20ED
:103B400000E0002001F086F92278D4E91B0100F0A2
:103B500067FD2D482D4900780A7890420ED00870F4
:103B60004FF00002114608B1FF2000E0002001F0F4
:103B700071F92278D4E91D0100F052FD244825494D
:103B8000184D00780A78803590420ED008704FF0BA
:103B90000002114608B1FF2000E0002001F05AF9B0
:103BA00022782968E06F00F03BFD1B481B49007834
:103BB0000A78904210D008704FF00002114608B108
:103BC000FF2000E0002001F045F92278D5E901014D
:103BD000BDE8704000F024BD70BD00001000002062
:103BE0001C000020D4030020110000201D00002034
:103BF000120000201E000020130000201F000020E3
:103C000014000020200000201500002021000020CA
:103C100016000020220000201700002023000020B2
:103C2000FEE700000FB4054B10B503A9044A029843
:103C300000F088FB10BC5DF814FB00006145000833
:103C4000640500200FB4084B10B504A902AA03981C
:103C500000F078FB044602A9002000F01DFC20467D
:103C600010BC5DF814FB000099440008490050EABC
:103C7000C12018BF04204A0D18BF40F0010040F2D7
:103C8000FF72B2EB515F08BF40F00200012808BF8D
:103C90000520704700280DDB00F01F020121914034
:103CA0004009800000F1E020C0F88011BFF34F8F81
:103CB000BFF36F8F70470907090E002804DB00F17E
:103CC000E02080F80014704700F00F0000F1E020C1
:103CD00080F8141D704700002DE9F74F144694B08A
:103CE0000021C4E902111599079121F00045C94945
:103CF0008D4206DC1599C4E9000117B00020BDE82B
:103D0000F08FC549DFF814A3A9423CDD0799C44EE2
:103D10000029C44FC44A1599534619DDFCF714FC19
:103D2000554506D0C14AC24BFCF70EFCC4E9000160
:103D30000AE04FF0D352BE4BFCF706FC32463B463E
:103D4000FCF702FCC4E9000117B00120BDE8F08FC8
:103D5000FCF759FB554506D0B44AB54BFCF753FB6D
:103D6000C4E900010AE04FF0D352B14BFCF74BFB22
:103D700032463B46FCF747FBC4E9000117B04FF061
:103D8000FF30BDE8F08FAB49A942159978DB21F0EF
:103D9000004183468846A84AA84BFCF7DBFB00227B
:103DA000A74BFCF730FBFCF779FC0990FCF744FCCF
:103DB00006460F469C4A5346FCF7CCFB43465A4600
:103DC000FCF7C5FB80468A46984A994B30463946EF
:103DD000FCF7C0FB2A0D01250B9242465346FCF727
:103DE000B6FB032DC4E9000139D00B98C1F30A5189
:103DF000401A05EB45111139814230DA9148C3462A
:103E0000784400EB0510CDF80CA00C90D0E900230D
:103E100030463946FCF79EFB02460B46049106905D
:103E200058460399FCF790FB80468A4602460B46AB
:103E300058460399FCF788FB049B069AFCF784FB21
:103E400083460C9803913946D0E902233046FCF7AB
:103E500081FB5A46039BFCF777FB6D1CBDE7079877
:103E60000028A2BF099817B0BDE8F08F616881F003
:103E700000416160099817B04042BDE8F08FFFE74C
:103E800084461598C1F31301C0F30A50A0F2F5302F
:103E90004FEA601800F01F06C6F1200013900020C2
:103EA0000690079041F4801E05206D4676B1664A63
:103EB00008EB00017A4452F8213002EB8101B34053
:103EC0004A68139922FA01F1194305E05F4908EBAA
:103ED0000002794451F82210A1FB0E27A1FB0C131C
:103EE0001A449A4234BF0123002303EB070A05EB6F
:103EF0008003D3E901B70F448F4234BF0121002171
:103F000093448B4411B1934502D903E0934501D208
:103F1000012100E00021C3E901B7514445F8201018
:103F2000011EA0F10100C1DC0298059F00F10050C4
:103F3000800F12900298DDE903568000FCF77CFBAD
:103F4000834628460D91FCF788FB6FF01D02FCF7B5
:103F500069FDCDE90E013046FCF77FFB6FF03D02B5
:103F6000FCF760FD80468A463846FCF776FB6FF02A
:103F70005D02FCF757FD0746424653461191FCF798
:103F800042FADDE90E23FCF73EFA5A460D9BFCF798
:103F90003AFA00250E465A4628460D9BFCF7D4FAFD
:103FA000DDE90E23FCF7D0FA42465346FCF7CCFA83
:103FB0003A46119BFCF7CBFADFF898A0244A534607
:103FC000FCF7C8FA07468846234A244B3146284660
:103FD000FCF7C0FA3A464346FCF715FA074688460E
:103FE0004FF0A842534631462846FCF7B3FA3A460A
:103FF0004346FCF708FA159A12F0004F04D0129AC3
:1040000081F0004152421292C4E90001129817B0A7
:10401000BDE8F08FFB21E93F7CD90240FB21F93F4D
:104020007370032E8A19A33B000040543163621A57
:1040300061B4D03DFB21394183C8C96D305FE43F95
:104040000000E03FBC190000381900001A190000F8
:10405000182D4454FB21F93D3326A611460B113C83
:104060002DE9FF4D21F0004807460C46B8F1795F75
:1040700008DAFCF713FB002801BF0020324904B026
:10408000BDE8F08D3A46234610461946FCF762FA21
:10409000054602462D480E460B460621784400F0A0
:1040A0005DF82A463346FCF755FADDE902238246DD
:1040B0008B4638462146FCF74DFA04460F465246D9
:1040C0005B4628463146FCF745FA22463B46FCF75C
:1040D0003BFA07468A464FF0FF3228463146FCF746
:1040E000A1FC1B4A90450ADA3A465346FCF72CFAE3
:1040F00004B00022BDE8F04D134BFCF728BA154A76
:104100004245A8BFA8F500154FF00004B8BF124DF6
:1041100022462B46FCF718FA0646884622462B46CE
:1041200000200949FCF710FA04460D463A4653466A
:1041300030464146FCF708FA04B022462B46BDE85B
:10414000F04DFCF704BA00000000F03FF01600004C
:104150003333D33F0000E93F0000D23F2DE9F04167
:104160004F1E00EBC7010446D1E9000115461E466B
:1041700037F006020DD02A463346FCF7EBF97F1ED6
:1041800004EBC703D3E90023FCF73DF937F006023F
:10419000F1D1022F25D0042F13D0062F18BFBDE870
:1041A000F0812A463346FCF7D5F9D4E90A23FCF717
:1041B0002AF92A463346FCF7CDF9D4E90823FCF75F
:1041C00022F92A463346FCF7C5F9D4E90623FCF761
:1041D0001AF92A463346FCF7BDF9D4E90423FCF763
:1041E00012F92A463346FCF7B5F9D4E90223FCF765
:1041F0000AF92A463346FCF7ADF9D4E90023BDE8B5
:10420000F041FCF700B900002DE9FF4D054621F013
:10421000004084B00C46B0F1795F0BDA2846FFF716
:1042200025FD042808BF00F06FF8284608B0214695
:10423000BDE8F08D2A460B461046FCF78BF9064682
:104240000F462A462346FCF785F9804626488A46CB
:1042500032463B4605217844FFF780FF834610989D
:10426000029160B3214A224B40465146FCF772F955
:10427000CDE900015A4640465146029BFCF76AF9D7
:1042800082468846DDE906014FF0FF32FCF7CAFBA3
:1042900052464346FCF758F932463B46FCF75AF97A
:1042A000DDE90623FCF750F9DDE90023FCF74CF9C2
:1042B00008B02A462346BDE8F04DFCF748B90B4646
:1042C0005A4630463946FCF745F9084A084BFCF790
:1042D0009AF842465346FCF73DF908B02A46234671
:1042E000BDE8F04DFCF78FB82E1600004955555526
:1042F0005555C5BF0122FCF795BB00221346104659
:104300001146FCF70DBB0000024A00201107FCF724
:1043100089BB000001FDFFFF02E008C8121F08C1B1
:10432000002AFAD170477047002001E001C1121F36
:10433000002AFBD170470000014908607047000067
:10434000680500202DE9FF4F89B09B4604460025F3
:1043500006E025280BD05A460B999047641C6D1C2B
:1043600020780028F5D10DB02846BDE8F08F002751
:10437000B8460122474900E0074314F8013F203BBB
:1043800002FA03F00842F7D120782E2819D114F848
:10439000010F47F004072A280ED06FF02F02207873
:1043A000A0F1300109290CD808EB880102EB41018A
:1043B00000EB0108641CF2E70A98641C50F8048BB7
:1043C0000A9020780028CED0642808D0692806D02A
:1043D00075281ED05A460B9990476D1C58E00A99D3
:1043E0004FF00A0901C90A91002802DA40422D2142
:1043F00002E0390504D52B218DF82010012103E0BE
:10440000F90704D02021F7E78A4608AE0DE0002125
:10441000FAE70A994FF00A0901C90A91F7E74946F4
:10442000FCF7A3F9303106F8011D0028F7D1ADEBF8
:10443000060000F12009780701D44FF00108C845B3
:1044400002DDA8EB090000E000208046002706E01E
:1044500008A85A46C05D0B9990476D1C7F1C5745B4
:10446000F6DB04E030205A460B9990476D1CB8F1FA
:104470000001A8F10108F5DC05E016F8010B5A4629
:104480000B9990476D1CB9F10001A9F10109F4DC09
:10449000641C65E7092801000A68531C0B60107052
:1044A0007047000006484FF4A072007820B1F02356
:1044B0000021084600F0FEBE1346F022F8E7000097
:1044C000BC03002000B5244B21F0004287B09A4283
:1044D000DCBF0022134629DD204B9A4208D140B9A7
:1044E0004FF00100FFF728FFFFF707FF07B000BDFF
:1044F00003DBFFF7FFFE07B000BD02AAFFF7ECFBEE
:1045000010F0030104BF0DF1080C9CE80F000DD062
:10451000012001290ED0022914D00DF1080C0090C1
:104520009CE80F00FFF770FE07B000BDFFF798FD95
:1045300007B000BD0DF1080C00909CE80F00FFF7DC
:1045400063FE05E00DF1080C9CE80F00FFF788FD05
:1045500007B081F0004100BDFB21E93F0000F07F82
:1045600013B54FF47A73012269460248FEF710FA38
:1045700000981CBD24090020F0B514004FF0000580
:1045800001D5544210440C4E4FF48002326002199F
:104590000B4600F08FFE094F641C04E0B978787870
:1045A000FEF7B0FB6D1CA542F8DB40203060BDE893
:1045B000F040FFF777BF000018040240BC03002062
:1045C000F0B515004FF0000601D555421144124FC9
:1045D0004FF480023A604B19024600F06BFE0F4C1C
:1045E00008206179102905D0082905D16178A278C1
:1045F000914201D1386008E06D1C04E0A178607838
:10460000FEF780FB761CAE42F8DB40203860BDE848
:10461000F040FFF747BF000018040240BC03002031
:104620002DE9F047164674428946824625461DE02C
:10463000204606FB06F116E000FB00F205FB052212
:104640008A420FDC41004A425044174609EB0501FB
:104650008046FFF791FF3A46A9EB05014046FFF778
:104660008BFF02E0401C0028E6DD6D1C002DDFDD25
:10467000BDE8F0872DE9FE4F8046012001905000F3
:104680004042009050480F464FF480011546C2F159
:104690000109002601607B1942461946104600F0C8
:1046A00009FE4A4CA1786078FEF72CFB7B1B424642
:1046B0001946104600F0FEFDA1786078FEF722FB57
:1046C00008EB05023B461046194600F0F3FDA178C1
:1046D0006078FEF717FBA8EB05023B46104619462B
:1046E00063E000BFB9F1000F04DB0098801C814437
:1046F0006D1E00900198761C801C814401907919F0
:1047000008EB06008A4653460246029000F0D2FDAE
:10471000A1786078FEF7F6FAA8EB060083465146CA
:1047200053465A4600F0C6FDA1786078FEF7EAFAD3
:10473000791B02988A465346024600F0BBFDA178D9
:104740006078FEF7DFFA5146584653465A4600F065
:10475000B1FDA1786078FEF7D5FAB91908EB05002C
:104760008A4653460246029000F0A4FDA178607884
:10477000FEF7C8FAA8EB05008346514653465A4651
:1047800000F098FDA1786078FEF7BCFAB91B02989A
:104790008A465346024600F08DFDA1786078FEF708
:1047A000B1FA5146584653465A4600F083FDA17867
:1047B0006078FEF7A7FAAE4294DB0348402101601F
:1047C000BDE8FE4FFFF76EBE18040240BC03002098
:1047D0002DE9F84F8146294888464FF48001144658
:1047E0000160A8EB0405DFF898B008EB040609EBBC
:1047F000040A11E02B4652461946484600F05AFD7D
:10480000002706E09BF802109BF80100FEF77AFAF9
:104810007F1CA742F6DB6D1CAE42EBDC4546A9EBE4
:10482000040A11E02B4650464A46194600F042FD64
:10483000002706E09BF802109BF80100FEF762FAE1
:104840007F1CA742F6DB6D1CAE42EBDC0B4840211F
:104850000160002104EBD472009104EB440008EBEA
:10486000620100EBD072A9EB620063002246401D9A
:1048700000F08CF9BDE8F84FFFF714BE18040240B1
:10488000BC0300202DE9F0430646032092FBF0F51F
:104890001F46144688463046FFF7C2FE04EBD4702C
:1048A0004410384600F0CEFA371B3019A8EB040943
:1048B000461BA044002406E03219381943464946F5
:1048C00000F010F8641CAC42F6DB002406E032195C
:1048D00038194B46414600F005F8641CAC42F6DB43
:1048E000BDE8F0832DE9F04F1E46131A1746B1427A
:1048F00003D11A46FFF740FE04E0721AB84205D110
:10490000FFF75EFEBDE8F04FFFF7CCBD4FF0FF3480
:10491000874201DCA0EB0703994602DD4FF001035B
:1049200000E023469B468E4202DC00BFA1EB06025C
:10493000904601DD4FF00104A2460C461C49054695
:104940004FF480000860C14517D24FEA58014F422A
:1049500023462A461946104600F0ACFC15488178DB
:104960004078FEF7CFF9B4421FD0544417EB090743
:10497000EED45D44A7EB0807EAE74FEA59014E423F
:1049800023462A461946104600F094FC09488178CF
:104990004078FEF7B7F9BD4207D05D4416EB080634
:1049A000EED45444A6EB0906EAE7BDE8F08F000018
:1049B00018040240BC0300202DE9F0474FF0030823
:1049C00092FBF8F41D46814616468A46FFF728FEFC
:1049D000361B284600F036FA002504EBD47705E0B4
:1049E000721B51464846FFF745FE6D1CB5EB670F3D
:1049F000F6DB610091FBF8F294FBF8F1A9EB010002
:104A0000AAEB0601A1EB6701334600F087F8BDE889
:104A1000F047FFF747BD00002DE9FC4F0646032095
:104A200092FBF0F41F460D463046FFF7F9FD38467D
:104A300000F008FA04EBD47006EB600905EB6005A2
:104A4000019034484FF480010160281B80462E19E4
:104A500009EB040B009014E003465A4619464846F9
:104A600000F028FC0027DFF8B0A006E09AF802105A
:104A70009AF80100FEF746F97F1CA742F6DB08F121
:104A8000010840464645E7DCA846A9EB040A11E0C8
:104A9000434650464A46194600F00CFC002705E004
:104AA0001D4881784078FEF72DF97F1CA742F7DB7F
:104AB00008F101084645EBDC604205EB400609EBD6
:104AC000400904EB440810E033465A46484619466C
:104AD00000F0F0FB002705E00F4881784078FEF7F2
:104AE00011F97F1CB845F7DC761C0098B042EBDC6E
:104AF000084840210160002000900198630005EB08
:104B000060015046224600F041F8BDE8FC4FFFF737
:104B1000C9BC000018040240BC0300202DE9F0418C
:104B2000804687180D460024C818461B06E02B193E
:104B300019463A464046FFF7D5FE641CA642F6DC0D
:104B4000BDE8F0812DE9F0438046994616460F46B0
:104B5000079800F077F908EB060507EB09043246E1
:104B600039464046FFF708FD4A4639464046FFF7BA
:104B700027FD324621464046FFF7FEFC4A463946AD
:104B80002846BDE8F043FFF71BBD00002DE9F04FBC
:104B900081466548154688464FF48001099A1C46AF
:104BA000016005EBD57103EBD473DFF880A1A9EBAD
:104BB0006101A8EB63003AB1B42A31D05A2A58D027
:104BC000B2F5877F6FD0A7E08B46002625E000BFB7
:104BD00004FB06F090FBF5F190FBF5F701EBD171CA
:104BE00008EB61030BEB060007EBD7770246A8EB57
:104BF000670100F05FFB002706FB04F907E000BF38
:104C00009AF802109AF80100FEF77CF87F1C99FBD5
:104C1000F5F0401CB842F3DC761CAE42D8DB7BE0FA
:104C20008946002622E0A81B604390FBF5F290FB2A
:104C3000F5F102EBD27208EB620309EB060001EB1F
:104C4000D1770246A8EB670100F034FB06FB04F0C5
:104C500090FBF5F0271A05E09AF802109AF8010087
:104C6000FEF750F87F1E002FF6DC761CAE42DADB32
:104C700052E08346002624E005FB06F090FBF4F1A9
:104C800090FBF4F001EBD1720BEB060300EBD07755
:104C900009EB62021946A9EB670000F00BFB002745
:104CA00006FB05F807E00FE09AF802109AF80100F9
:104CB000FEF728F87F1C98FBF4F0401CB842F3DCA8
:104CC000761CA642D8DB27E08046002622E0A01B07
:104CD000684390FBF4F190FBF4F001EBD17208EB28
:104CE000060300EBD07709EB62021946A9EB6700D7
:104CF00000F0E0FA06FB05F090FBF4F02F1A05E057
:104D00009AF802109AF80100FDF7FCFF7F1E002FB1
:104D1000F6DC761CA642DADB034840210160BDE8E0
:104D2000F04FFFF7BFBB000018040240BC03002097
:104D30002DE9F84F984692460C460646FBF794FA42
:104D40002249054642F20F720F78531E01F11000FE
:104D50009FB1944204D10279CC6805FB1244641CD3
:104D60009C4207D10279C96805FB1211491C01EB6D
:104D7000D1714C100027814619E0944204D1027988
:104D80008C6805FB1244641C9C42F3D1027989684B
:104D9000EAE700BFB8F1000F0DD0CDF8008016F89B
:104DA000010B3B465246214600F09EF97F1CAF4264
:104DB000F0DBBDE8F88F99F8051016F8010B07FB3A
:104DC0000141524600F0E6F8F0E70000BC03002085
:104DD0002DE9F041DFF864804FF480010024C8F829
:104DE0000010174D4FF4A076234632461946002096
:104DF00000F060FA0027A9786878FDF783FF7F1C30
:104E0000B742F8DBA41CF02CEEDBEF273B46324622
:104E10001946002000F04EFA0024A9786878FDF7C2
:104E200071FF641CB442F8DBBF1E002FEEDC402192
:104E3000C8F80010BDE8F041FFF734BB1804024089
:104E4000BC0300200249020A4A70887070470000C3
:104E5000BC03002000F0F80040EA5113044801F0C0
:104E60001C01C900437041EAD20181707047000003
:104E7000BC030020C1B2C0F30720FDF743BF000010
:104E8000FDF79EF8FEF758FAFEF7DCF83948FCF714
:104E900075FCFEF7C1F8FEF74DF8FEF743F9FEF793
:104EA0005DF9FEF7A9FCFCF7E3F8FEF7F3F932A091
:104EB000FEF7B8FE324C334D334E2246294630467B
:104EC000FEF710FA224629463046FEF711FA22462E
:104ED00029463046FEF712FA224629463046FEF7AA
:104EE00013FA224629463046FEF714FA224629468E
:104EF0003046FEF715FAFDF715FFFF221146104662
:104F0000FFF7A8FFFFF764FFFCF7FEFA42F210700C
:104F1000FBF7ACFFFF2211461046FFF79BFFFFF7A0
:104F200057FF1A4800F0B8F9FCF748F9FCF7FCF90C
:104F3000FCF71AFA0026164C142500BFFCF752F8AD
:104F40002088C82804D1FBF793FE2680FEF76CFC6E
:104F50002088B0FBF5F105FB110008B9FEF724FD30
:104F6000FEF78CFD2088401C20800520FBF77EFF8B
:104F7000E4E700007C08002048656C6C6F0D0A00B7
:104F80000AD7A33B00803B4500004842C0000020F8
:104F9000240000202DE9F74FDFF844A191460022BC
:104FA00050498AF806204FF480020A600AF1100185
:104FB0000A464C7993791279C01AD20850434FF0BF
:104FC000010B082C4CD2042202EBC00700263FE064
:104FD000C108B6FBF1F3B6FBF1F202EB0901019A4D
:104FE0003F4C521E024410344B44019800F062F9C9
:104FF00020794FF0FF3111EBD00522D43848103022
:105000007A1901684079C0F1080011F80280C4B231
:1050100013E000BF0BFA04F010EA080F504603D06B
:1050200081789AF8010002E001799AF8030041EAD8
:105030000020FFF71FFF641CE4B2082CEAD36D1EAA
:10504000DCD527481030007907EBD00706EBD006F7
:1050500023491031087920F00702B242B8D837E06E
:10506000604300F1040800262DE0002521E00168DE
:1050700008EB050000240F5CC4F107010BFA01F0F6
:10508000384211D0019809EB0601204400EBC5001D
:10509000421C4B1C00F00EF99AF802109AF801001D
:1050A00041EA0020FFF7E6FE641CE4B2082CE3D3DB
:1050B0006D1C0B4810300179B5EBD10FD7DB0179AE
:1050C000761C08EBD108064810304179B142CCD8A3
:1050D000044840210160BDE8FE4FFFF7E3B900003E
:1050E000BC030020180402402DE9FF4F95B0044690
:1050F0009A462298FBF7A0FA634A644BFBF72AFA18
:10510000FBF7EBFAC0B2149061484FF480010160E4
:10511000604881790279611AD2085143427951433A
:10512000091D0691002112919FE000258DE006984F
:10513000316828440024085C13901698FBF77CFA29
:10514000CDE90A011798FBF777FACDE90801129823
:10515000FBF783FACDE903011498FBF77EFACDE95A
:105160000101029900F0DCF802460B46DDE903017B
:10517000FBF7F0F980468946DDE90101FFF7A2F966
:105180000E464449074604EBC50B0A790AFB02B0F8
:10519000FBF752FA3A463346FBF7DCF942464B46F8
:1051A000FBF7D2F902460B46DDE90A01FBF72BF9C2
:1051B000FBF774FA0646DDE9010100F0B1F80F468D
:1051C000344980460A790AFB02B0FBF735FA4246B9
:1051D0003B46FBF7BFF980460F46DDE90101FFF7CB
:1051E00071F902460B46DDE90301FBF7B3F94246CC
:1051F0003B46FBF708F902460B46DDE90801FBF7E1
:1052000002F9FBF74BFA0146431C721C304600F0D2
:1052100051F8C4F1070101208840139908421D4844
:10522000A0F1100002D08178407803E0817929B99B
:105230000179C07841EA0020FFF71CFE641CE4B24B
:10524000082C01D201988CE76D1C124E3079B5EB19
:10525000D00FFFF66CAF30460179069800EBD10015
:1052600006901298401CC0B212900A4812994279D6
:105270008A423FF65AAF06484021016019B0BDE8A6
:10528000F04FFFF70FB90000EC51B81E85EB913FCE
:1052900018040240CC0300200549086002780A7116
:1052A00042784A7182788A71C078C871704700006C
:1052B000CC030020F0B5064618481D461446007879
:1052C0000F46012806D130460E461C46C0F5A07593
:1052D000C2F5A0772A20FDF707FD300AFDF7F6FC9E
:1052E0003046FDF7F3FC200AFDF7F0FC2046FDF701
:1052F000EDFC2B20FDF7F8FC380AFDF7E7FC3846FB
:10530000FDF7E4FC280AFDF7E1FC2846FDF7DEFC8A
:10531000BDE8F0402C20FDF7E7BC0000BC030020F6
:1053200000B5254B21F0004287B09A4203DC0022F1
:10533000134600922BE0214B9A4208D140B94FF01E
:105340000100FEF7F9FFFEF7D8FF07B000BD03DB51
:10535000FEF7D0FF07B000BD02AAFEF7BDFC10F0BB
:1053600003014FF001000DD0012914D002291AD0F9
:105370000DF1080C9CE80F00FEF772FE07B081F0FB
:10538000004100BD0DF1080C00909CE80F00FEF7F5
:105390003BFF07B000BD0DF1080C9CE80F00FEF7C5
:1053A0005FFE07B000BD0DF1080C00909CE80F00F7
:1053B000FEF72AFFE2E70000FB21E93F0000F07F53
:1053C0002DE9F05F234C0546D4E900108346FAF737
:1053D00052FF01465846FAF7D8FF606121698046BE
:1053E00089462846FAF799FF4146FAF79CFF494655
:1053F000FAF741FF0546E060A068FBF787F90E4623
:10540000074629464846FAF788FF20F00040FBF798
:105410007DF93A463346FBF79DF881468A46584661
:10542000FBF774F907460E464046FBF76FF900227A
:10543000094BFBF78CF83A463346FBF78BF84A46A4
:105440005346FAF7E0FFFBF774F9256160602846E0
:10545000BDE8F09F300000200000F03F2DE9F05F34
:10546000234C0546D4E906108346FAF704FF0146AB
:105470005846FAF78AFFE062A16A804689462846C4
:10548000FAF74BFF4146FAF74EFF4946FAF7F3FEAB
:1054900005466062206AFBF739F90E460746294641
:1054A0004846FAF73AFF20F00040FBF72FF93A465A
:1054B0003346FBF74FF881468A465846FBF726F9F4
:1054C00007460E464046FBF721F90022094BFBF741
:1054D0003EF83A463346FBF73DF84A465346FAF75C
:1054E00092FFFBF726F9A562E0612846BDE8F09F30
:1054F000300000200000F03F2DE9F05F234C05460E
:10550000D4E90C108346FAF7B6FE01465846FAF77E
:105510003CFF6064216C804689462846FAF7FDFE10
:105520004146FAF700FF4946FAF7A5FE0546E06353
:10553000A06BFBF7EBF80E46074629464846FAF7FC
:10554000ECFE20F00040FBF7E1F83A463346FBF76B
:1055500001F881468A465846FBF7D8F807460E46BA
:105560004046FBF7D3F80022094BFAF7F0FF3A4622
:105570003346FAF7EFFF4A465346FAF744FFFBF784
:10558000D8F8256460632846BDE8F09F300000200D
:105590000000F03F2DE9F05F234C0546D4E91210DE
:1055A0008346FAF768FE01465846FAF7EEFEE065D4
:1055B000A16D804689462846FAF7AFFE4146FAF7C4
:1055C000B2FE4946FAF757FE05466065206DFBF7C7
:1055D0009DF80E46074629464846FAF79EFE20F0FB
:1055E0000040FBF793F83A463346FAF7B3FF81469B
:1055F0008A465846FBF78AF807460E464046FBF7B0
:1056000085F80022094BFAF7A2FF3A463346FAF72B
:10561000A1FF4A465346FAF7F6FEFBF78AF8A5655E
:10562000E0642846BDE8F09F300000200000F03F15
:105630002DE9F05F234C0546D4E918108346FAF7AC
:105640001AFE01465846FAF7A0FE6067216F8046B1
:1056500089462846FAF761FE4146FAF764FE494654
:10566000FAF709FE0546E066A06EFBF74FF80E4616
:10567000074629464846FAF750FE20F00040FBF75F
:1056800045F83A463346FAF765FF81468A4658465A
:10569000FBF73CF807460E464046FBF737F800227A
:1056A000094BFAF754FF3A463346FAF753FF4A4696
:1056B0005346FAF7A8FEFBF73CF8256760662846D4
:1056C000BDE8F09F300000200000F03F2DE9F84FCA
:1056D000244F0546D7E91E100090FAF7CCFD01468D
:1056E0000098FAF752FE07F180048346E060A16853
:1056F00028468946FAF711FE5946FAF714FE49463C
:10570000FAF7B9FD054660602068FAF7FFFF064624
:10571000884629464846FAF700FE20F00040FAF78E
:10572000F5FF32464346FAF715FF81468A46009850
:10573000FAF7ECFF064688465846FAF7E7FF0022DC
:10574000094BFAF704FF32464346FAF703FF4A468D
:105750005346FAF758FEFAF7ECFFF8672846A560BB
:10576000BDE8F88F300000200000F03F0006101662
:1057700000061016000000000000000001020304F3
:1057800006070809000000000102030400000000F1
:105790004C5555555555A53F7751C1166CC156BF4F
:1057A0009015CB19A001FA3EAD529C804F7E92BE5F
:1057B000C4B1B4BD9EEE213ED43888BEE9FAA8BD7E
:1057C00000004054FB21F93F3163621A61B4D03DBF
:1057D0000000601A61B4D03D7370032E8A19A33B98
:1057E0000000002E8A19A33BC14920259A837B39EA
:1057F00000000000000000006E83F9A22915444E4D
:10580000D15727FCC0DD34F5999562DB4190433CCC
:10581000AB6351FE61C5BBDE3A6E24B7E0D24D42A8
:10582000EA2E49061C92D1091CEB1DFE3EA729B1A8
:10583000F53582E88444BB2E26709CE9417E5FB436
:1058400039D69139F43953838B5F849C3B28F9BD59
:10585000FF97F81F0F9805DE8B112FEF1F6D0A5A67
:10586000CF7E366DB709CB27663F464F2DEA5F9E48
:10587000C7BA27757BF1E5EBF739073DEA92528A03
:10588000B15FFB6B085D8D1FA6F810111111813FF0
:10589000D561C119A0012ABF7DFEB157E31DC73EE6
:1058A000EB9C2B8AE6E55ABE7CD5CF5A3AD9E53D2A
:1058B000D0580008000000206C050000520A0008C3
:1058C000145B00086C050020440800002843000811
:1058D000012C029301850808205F16183C3C18181B
:1058E0001218546666241C6C6CFE02126C20081898
:1058F0003E603C067C1817C6CC183066C6100838C7
:105900006C3876DCCC765418183010080C1830300F
:1059100030180C19041A0C0C212E663CFF3C665101
:105920001B187E51595D392D927E19191A062D14B6
:1059300060C08010087CC6CED6E6C67C1C1838181D
:10594000011A7E102E061C3066FE081B3C0618103D
:10595000081C3C6CCCFE0C1E2DFEC0C0FC101E387A
:1059600060C0FCC6083BFEC67A19282AC60329086F
:105970003D7E060C785C99042A30684C180C067F32
:1059800019031A600E197A19303A0CF018087CC6FF
:10599000DEDEDEC078D816C6FEC6C6C61008FC66B7
:1059A000667C6666FC10083C66C0C0C0663C100899
:1059B000F86C6666666CF84808FE6268786862FE95
:1059C000083B60F02014CE663A193439382A3CBFBF
:1059D00013183C10081E0C0C0CCCCC781008E66692
:1059E0006C786C66E61EF060606062D01EC6EEFEEB
:1059F000FED6281EC6E6F6DECE0819B019013A7C9E
:105A0000701A605039102CCE7C0E1029381E7CC6BE
:105A100060380C203C7E7E5A58392F191039072BDC
:105A20006C38081DD6D6FE6C081A6CBB12C619A6B7
:105A30001983123C1EFEC68C1832702B3C300112AA
:105A40003C2AC0F11306021A3C98140C0C3C1A10A4
:105A50002EB11AFF1E7116780C7CCC761CE0607C8F
:105A60004B32DC1C7CC6C0701A1C161ACC182910CC
:105A70001CFEC07CF82B60F8B021180C76CCCC7CD6
:105A80000CF8E0606C7666B012183A38A812061C62
:105A90000606068C3808E060666C786CE6162918F5
:105AA0002136ECFED6D6D61ADC603A665029D039BB
:105AB000102A7C5139501A1E104A7660167EC07C1E
:105AC00006FC30083030FC3030361C198739881914
:105AD000372B6C38082DD6D6FE6C084A6CD31918B3
